S00C0000554152542E73726563DC
S113000019C022C021C020C01FC01EC01DC01CC0FA
S11300101BC01AC019C018C017C016C015C014C020
S113002013C012C011C010C00FC00EC00DC00CC050
S11300300BC00AC011241FBECFEFCDBFDFE3DEBF6C
S11300400E9458000C949D000C9400009C01990F90
S1130050440B550B64E573E78BEC90E00E947B0046
S1130060E4E2F4E0808184608083E0E2F4E0808173
S113007084608083832F992787FD9A95809309084C
S113008020930808E6E0F8E08081806C808308957E
S1130090E4E0F8E080818823ECF78091000808957B
S11300A0E4E0F8E0908195FFFDCF80930208089585
S11300B080E895E20E942600E0E2F4E0808180611D
S11300C08083E4E2F4E0808180618083C4E2D4E050
S11300D00E94480098819F7E98830E9450002AE6DF
S11300E084E091E0215080409040E1F700C0888195
S11300F080618883EDCFA1E21A2EAA1BBB1BFD01F0
S11301000DC0AA1FBB1FEE1FFF1FA217B307E407F2
S1130110F50720F0A21BB30BE40BF50B661F771F4A
S1130120881F991F1A9469F760957095809590952A
S11101309B01AC01BD01CF010895F894FFCFEF
S9030000FC
