S01000005461736B315F4C462E737265635F
S113000019C02AC029C028C027C026C025C024C0C2
S113001023C022C021C020C01FC01EC01DC01CC0E0
S11300201BC01AC019C018C017C016C0A2C014C083
S113003013C012C011241FBECFEFCDBFDFE3DEBF5C
S11300402EE3A0E0BEE301C01D92A430B207E1F7A5
S11300500E944E000C94E0000C940000E0E0F6E0F6
S113006080818460808381818260818382818061D8
S11300708283828182838081816080830895E0E02D
S1130080F6E08683838581608387808581608087AD
S1130090838580FFFDCF8091100608956CE675E09E
S11300A080E090E00E9497000E942E007894CDECAE
S11300B086E00E943F0080958C9F912D1124969597
S11300C096959695392F330F232F220F220F230F46
S11300D0821B8093013E9C9F812D112486958695D9
S11300E08695382F330F232F220F220F230F921BB5
S11300F09093023E8093033E8093003E805D0E9475
S1130100AF008091023E805D0E94AF008091013E6D
S1130110805D0E94AF0080E20E94AF002AE28CE280
S11301209AE0215080409040E1F70000C1CF0F9346
S11301301F93E0E2F4E024E025832183072F182FA6
S1130140292F3327E0E0F8E0018760878681806CFF
S113015086838581806885831F910F910895E0E0EF
S1130160F8E0948195FFFDCFE0E0F8E0138282830C
S113017008951F920F920FB60F9211242F933F935D
S11301804F935F936F937F938F939F93AF93BF939B
S1130190EF93FF93809100088F5F0E94AF00FF915F
S11301A0EF91BF91AF919F918F917F916F915F91EB
S11301B04F913F912F910F900FBE0F901F90189564
S10701C0F894FFCFDD
S9030000FC
